:020000040800F2
:1000000000500020895900087157000877570008F0
:100010007D5700088357000889570008000000003A
:100020000000000000000000000000008F570008E2
:100030009B57000800000000A7570008B3570008AE
:10004000D1590008D1590008D1590008D1590008E8
:10005000D1590008D1590008D1590008D1590008D8
:10006000D1590008D1590008D1590008D1590008C8
:10007000D1590008D1590008D1590008D1590008B8
:10008000D1590008D1590008D1590008D1590008A8
:10009000D1590008D1590008D1590008D159000898
:1000A000D1590008C1570008D1590008D15900089A
:1000B000D1590008D1590008D1590008D159000878
:1000C000D1590008D1590008D1590008D159000868
:1000D000D1590008D5570008D1590008E957000840
:1000E000D1590008D1590008D1590008000000007A
:1000F0000000000000000000000000000000000000
:0C01000000000000000000005FF808F1A3
:1001100010B5054C237833B9044B13B10448AFF341
:1001200000800123237010BDE801002000000000C2
:100130008805010808B5034B1BB103490348AFF319
:10014000008008BD00000000EC01002088050108C7
:10015000034613F8012B002AFBD1181A0138704707
:1001600081F0004102E000BF83F0004330B54FEA68
:1001700041044FEA430594EA050F08BF90EA020FD5
:100180001FBF54EA000C55EA020C7FEA645C7FEA68
:10019000655C00F0E2804FEA5454D4EB5555B8BF8B
:1001A0006D420CDD2C4480EA020281EA030382EAFC
:1001B000000083EA010180EA020281EA0303362D8E
:1001C00088BF30BD11F0004F4FEA01314FF4801C61
:1001D0004CEA113102D0404261EB410113F0004F73
:1001E0004FEA03334CEA133302D0524263EB43032A
:1001F00094EA050F00F0A780A4F10104D5F1200EC8
:100200000DDB02FA0EFC22FA05F2801841F1000122
:1002100003FA0EF2801843FA05F359410EE0A5F1F6
:1002200020050EF1200E012A03FA0EFC28BF4CF027
:10023000020C43FA05F3C01851EBE37101F00045DD
:1002400007D54FF0000EDCF1000C7EEB00006EEBEA
:100250000101B1F5801F1BD3B1F5001F0CD3490874
:100260005FEA30004FEA3C0C04F101044FEA4452CB
:1002700012F5800F80F09A80BCF1004F08BF5FEA52
:10028000500C50F1000041EB045141EA050130BD32
:100290005FEA4C0C404141EB0101013C28BFB1F544
:1002A000801FE9D291F0000F04BF01460020B1FA8F
:1002B00081F308BF2033A3F10B03B3F120020CDA62
:1002C0000C3208DD02F1140CC2F10C0201FA0CF040
:1002D00021FA02F10CE002F11402D8BFC2F1200CA5
:1002E00001FA02F120FA0CFCDCBF41EA0C0190405B
:1002F000E41AA2BF01EB0451294330BD6FEA0404A4
:100300001F3C1CDA0C340EDC04F11404C4F120028E
:1003100020FA04F001FA02F340EA030021FA04F3A0
:1003200045EA030130BDC4F10C04C4F1200220FAF7
:1003300002F001FA04F340EA0300294630BD21FA35
:1003400004F0294630BD94F0000F83F4801306BFFB
:1003500081F480110134013D4EE77FEA645C18BFEF
:100360007FEA655C29D094EA050F08BF90EA020F86
:1003700005D054EA000C04BF1946104630BD91EA7E
:10038000030F1EBF0021002030BD5FEA545C05D181
:100390004000494128BF41F0004130BD14F58004C0
:1003A0003CBF01F5801130BD01F0004545F0FE4134
:1003B00041F470014FF0000030BD7FEA645C1ABF69
:1003C000194610467FEA655C1CBF0B46024650EAA0
:1003D000013406BF52EA033591EA030F41F40021CC
:1003E00030BD00BF90F0000F04BF0021704730B552
:1003F0004FF4806404F132044FF000054FF0000127
:1004000050E700BF90F0000F04BF0021704730B5E7
:100410004FF4806404F1320410F0004548BF4042BC
:100420004FF000013EE700BF42004FEAE2014FEA11
:1004300031014FEA02701FBF12F07F4393F07F4FEC
:1004400081F06051704732F07F4208BF704793F0EF
:100450007F4F04BF41F40021704730B54FF4607402
:1004600001F0004521F000411CE700BF50EA010205
:1004700008BF704730B54FF000050AE050EA0102AE
:1004800008BF704730B511F0004502D5404261EB1E
:1004900041014FF4806404F132045FEA915C3FF45F
:1004A000D8AE4FF003025FEADC0C18BF03325FEAFC
:1004B000DC0C18BF033202EBDC02C2F1200300FAAD
:1004C00003FC20FA02F001FA03FE40EA0E0021FAD2
:1004D00002F11444BDE600BF70B54FF0FF0C4CF4C0
:1004E000E06C1CEA11541DBF1CEA135594EA0C0F72
:1004F00095EA0C0F00F0DEF82C4481EA030621EAAD
:100500004C5123EA4C5350EA013518BF52EA0335E7
:1005100041F4801143F4801338D0A0FB02CE4FF099
:100520000005E1FB02E506F00042E0FB03E54FF0C9
:100530000006E1FB03569CF0000F18BF4EF0010EC1
:10054000A4F1FF04B6F5007F64F5407404D25FEABD
:100550004E0E6D4146EB060642EAC62141EA555170
:100560004FEAC52040EA5E504FEACE2EB4F1FD0CB2
:1005700088BFBCF5E06F1ED8BEF1004F08BF5FEA30
:10058000500E50F1000041EB045170BD06F00046E2
:1005900046EA010140EA020081EA0301B4EB5C048F
:1005A000C2BFD4EB0C0541EA045170BD41F4801187
:1005B0004FF0000E013C00F3AB8014F1360FDEBFAC
:1005C000002001F0004170BDC4F10004203C35DA88
:1005D0000C341BDC04F11404C4F1200500FA05F30B
:1005E00020FA04F001FA05F240EA020001F00042AC
:1005F00021F0004110EBD37021FA04F642EB060122
:100600005EEA430E08BF20EAD37070BDC4F10C044B
:10061000C4F1200500FA04F320FA05F001FA04F20F
:1006200040EA020001F0004110EBD37041F10001FB
:100630005EEA430E08BF20EAD37070BDC4F1200506
:1006400000FA05F24EEA020E20FA04F301FA05F26E
:1006500043EA020321FA04F001F0004121FA04F216
:1006600020EA020000EBD3705EEA430E08BF20EAE6
:10067000D37070BD94F0000F0FD101F00046400020
:1006800041EB010111F4801F08BF013CF7D041EAA2
:10069000060195F0000F18BF704703F000465200A6
:1006A00043EB030313F4801F08BF013DF7D043EA77
:1006B0000603704794EA0C0F0CEA135518BF95EA2D
:1006C0000C0F0CD050EA410618BF52EA4306D1D1B4
:1006D00081EA030101F000414FF0000070BD50EAD3
:1006E000410606BF1046194652EA430619D094EA5D
:1006F0000C0F02D150EA013613D195EA0C0F05D147
:1007000052EA03361CBF104619460AD181EA03019A
:1007100001F0004141F0FE4141F470014FF0000052
:1007200070BD41F0FE4141F4780170BD70B54FF0ED
:10073000FF0C4CF4E06C1CEA11541DBF1CEA13556D
:1007400094EA0C0F95EA0C0F00F0A7F8A4EB05044F
:1007500081EA030E52EA03354FEA013100F0888046
:100760004FEA03334FF0805545EA131343EA12630F
:100770004FEA022245EA111545EA10654FEA0026C4
:100780000EF000419D4208BF964244F1FD0404F57D
:10079000407402D25B084FEA3202B61A65EB0305D9
:1007A0005B084FEA32024FF480104FF4002CB6EB96
:1007B000020E75EB030E22BFB61A754640EA0C0016
:1007C0005B084FEA3202B6EB020E75EB030E22BF56
:1007D000B61A754640EA5C005B084FEA3202B6EB97
:1007E000020E75EB030E22BFB61A754640EA9C0056
:1007F0005B084FEA3202B6EB020E75EB030E22BF26
:10080000B61A754640EADC0055EA060E18D04FEAE3
:10081000051545EA16754FEA06164FEAC30343EA83
:1008200052734FEAC2025FEA1C1CC0D111F4801F50
:100830000BD141EA00014FF000004FF0004CB6E749
:1008400011F4801F04BF01430020B4F1FD0C88BFE8
:10085000BCF5E06F3FF6AFAEB5EB030C04BFB6EBF3
:10086000020C5FEA500C50F1000041EB045170BDE6
:100870000EF0004E4EEA113114EB5C04C2BFD4EB13
:100880000C0541EA045170BD41F480114FF0000E97
:10089000013C90E645EA060E8DE60CEA135594EA13
:1008A0000C0F08BF95EA0C0F3FF43BAF94EA0C0F16
:1008B0000AD150EA01347FF434AF95EA0C0F7FF48B
:1008C00025AF104619462CE795EA0C0F06D152EADF
:1008D00003353FF4FDAE1046194622E750EA4106C3
:1008E00018BF52EA43067FF4C5AE50EA41047FF4D4
:1008F0000DAF52EA43057FF4EBAE12E74FF0FF3C39
:1009000006E000BF4FF0010C02E000BF4FF0010C09
:100910004DF804CD4FEA410C7FEA6C5C4FEA430C82
:1009200018BF7FEA6C5C1BD001B050EA410C0CBFD1
:1009300052EA430C91EA030F02BF90EA020F002033
:10094000704710F1000F91EA030F58BF994208BF9A
:1009500090422CBFD8176FEAE37040F00100704757
:100960004FEA410C7FEA6C5C02D150EA013C07D1AE
:100970004FEA430C7FEA6C5CD6D152EA033CD3D0F9
:100980005DF8040B704700BF8446104662468C46F3
:100990001946634600E000BF01B5FFF7B7FF002826
:1009A00048BF10F1000F01BD4DF808EDFFF7F4FF4F
:1009B0000CBF012000205DF808FB00BF4DF808EDDA
:1009C000FFF7EAFF34BF012000205DF808FB00BFFD
:1009D0004DF808EDFFF7E0FF94BF012000205DF81F
:1009E00008FB00BF4DF808EDFFF7CEFF94BF0120D4
:1009F00000205DF808FB00BF4DF808EDFFF7C4FFCD
:100A000034BF012000205DF808FB00BF4FEA410C15
:100A10007FEA6C5C02D150EA013C0AD14FEA430CF8
:100A20007FEA6C5C02D152EA033C02D14FF0000035
:100A300070474FF0010070474FEA410212F5001273
:100A400015D211D56FF47873B3EB625212D94FEA15
:100A5000C12343F0004343EA505311F0004F23FAFF
:100A600002F018BF404270474FF00000704750EA54
:100A7000013005D111F0004008BF6FF00040704711
:100A80004FF00000704700BF4A0011D212F500126B
:100A900011D20DD56FF47873B3EB62520ED44FEAD6
:100AA000C12343F0004343EA505323FA02F0704756
:100AB0004FF00000704750EA013002D14FF0FF3094
:100AC00070474FF0000070474FEA4102B2F1E04337
:100AD00024BFB3F5001CDCF1FE5C0DD901F0004C25
:100AE0004FEAC0024CEA5070B2F1004F40EB830075
:100AF00008BF20F00100704711F0804F21D113F1A1
:100B00003872BCBF01F00040704741F480114FEAD9
:100B10005252C2F11802C2F1200C10FA0CF320FA62
:100B200002F018BF40F001004FEAC1234FEAD3237F
:100B300003FA0CFC40EA0C0023FA02F34FEA4303E9
:100B4000CCE77FEA625307D150EA01331EBF4FF072
:100B5000FE4040F44000704701F0004040F0FE408D
:100B600040F40000704700BF80F0004002E000BF8A
:100B700081F0004142001FBF5FEA410392EA030F88
:100B80007FEA226C7FEA236C6AD04FEA1262D2EBD2
:100B90001363C1BFD218414048404140B8BF5B42D7
:100BA000192B88BF704710F0004F40F4000020F070
:100BB0007F4018BF404211F0004F41F4000121F086
:100BC0007F4118BF494292EA030F3FD0A2F10102D0
:100BD00041FA03FC10EB0C00C3F1200301FA03F10E
:100BE00000F0004302D5494260EB4000B0F5000F31
:100BF00013D3B0F1807F06D340084FEA310102F1F0
:100C00000102FE2A51D2B1F1004F40EBC25008BFA1
:100C100020F0010040EA03007047490040EB00006B
:100C2000013A28BFB0F5000FEDD2B0FA80FCACF16C
:100C3000080CB2EB0C0200FA0CF0AABF00EBC25099
:100C400052421843BCBFD0401843704792F0000F87
:100C500081F4000106BF80F400000132013BB5E7DA
:100C60004FEA41037FEA226C18BF7FEA236C21D050
:100C700092EA030F04D092F0000F08BF08467047B5
:100C800090EA010F1CBF0020704712F07F4F04D183
:100C9000400028BF40F00040704712F100723CBF96
:100CA00000F50000704700F0004343F0FE4040F4C0
:100CB000000070477FEA226216BF08467FEA23637E
:100CC0000146420206BF5FEA412390EA010F40F469
:100CD000800070474FF0000304E000BF10F00043B5
:100CE00048BF40425FEA000C08BF704743F096439C
:100CF00001464FF000001CE050EA010208BF7047B7
:100D00004FF000030AE000BF50EA010208BF70473D
:100D100011F0004302D5404261EB41015FEA010C52
:100D200002BF84460146002043F0B64308BFA3F14A
:100D30008053A3F50003BCFA8CF2083AA3EBC2532C
:100D400010DB01FA02FC634400FA02FCC2F120024B
:100D5000BCF1004F20FA02F243EB020008BF20F082
:100D60000100704702F1200201FA02FCC2F12002E8
:100D700050EA4C0021FA02F243EB020008BF20EADD
:100D8000DC7070474FF0FF0C1CEAD0521EBF1CEA0B
:100D9000D15392EA0C0F93EA0C0F6FD01A4480EAF9
:100DA000010C400218BF5FEA41211ED04FF00063E2
:100DB00043EA501043EA5111A0FB01310CF000400E
:100DC000B1F5000F3EBF490041EAD3715B0040EA34
:100DD000010062F17F02FD2A1DD8B3F1004F40EB04
:100DE000C25008BF20F00100704790F0000F0CF0D7
:100DF000004C08BF49024CEA502040EA51207F3A9B
:100E0000C2BFD2F1FF0340EAC250704740F4000075
:100E10004FF00003013A5DDC12F1190FDCBF00F066
:100E200000407047C2F10002410021FA02F1C2F114
:100E3000200200FA02FC5FEA310040F1000053EAB0
:100E40004C0308BF20EADC70704792F0000F00F0FE
:100E5000004C02BF400010F4000F013AF9D040EA04
:100E60000C0093F0000F01F0004C02BF490011F498
:100E7000000F013BF9D041EA0C018FE70CEAD15396
:100E800092EA0C0F18BF93EA0C0F0AD030F0004C16
:100E900018BF31F0004CD8D180EA010000F00040CA
:100EA000704790F0000F17BF90F0004F084691F088
:100EB000000F91F0004F14D092EA0C0F01D14202C2
:100EC0000FD193EA0C0F03D14B0218BF084608D18B
:100ED00080EA010000F0004040F0FE4040F40000D5
:100EE000704740F0FE4040F4400070474FF0FF0C68
:100EF0001CEAD0521EBF1CEAD15392EA0C0F93EAAF
:100F00000C0F69D0A2EB030280EA010C49024FEA00
:100F1000402037D04FF0805343EA111143EA1013B9
:100F20000CF000408B4238BF5B0042F17D024FF471
:100F3000000C8B4224BF5B1A40EA0C00B3EB510F4C
:100F400024BFA3EB510340EA5C00B3EB910F24BF35
:100F5000A3EB910340EA9C00B3EBD10F24BFA3EBBA
:100F6000D10340EADC001B0118BF5FEA1C1CE0D182
:100F7000FD2A3FF650AF8B4240EBC25008BF20F035
:100F8000010070470CF0004C4CEA50207F32C2BF89
:100F9000D2F1FF0340EAC250704740F400004FF026
:100FA0000003013A37E792F0000F00F0004C02BF57
:100FB000400010F4000F013AF9D040EA0C0093F021
:100FC000000F01F0004C02BF490011F4000F013B7B
:100FD000F9D041EA0C0195E70CEAD15392EA0C0FE3
:100FE00008D142027FF47DAF93EA0C0F7FF470AF1B
:100FF000084676E793EA0C0F04D14B023FF44CAF5E
:1010000008466EE730F0004C18BF31F0004CCAD1F2
:1010100030F000427FF45CAF31F000437FF43CAF2E
:101020005FE700BF4FF0FF3C06E000BF4FF0010C50
:1010300002E000BF4FF0010C4DF804CD4FEA400232
:101040004FEA41037FEA226C18BF7FEA236C11D07C
:1010500001B052EA530C18BF90EA010F58BFB2EB2F
:10106000030088BFC81738BF6FEAE17018BF40F0AF
:10107000010070477FEA226C02D15FEA402C05D163
:101080007FEA236CE4D15FEA412CE1D05DF8040BE8
:10109000704700BF844608466146FFE70FB5FFF77B
:1010A000C9FF002848BF10F1000F0FBD4DF808ED33
:1010B000FFF7F4FF0CBF012000205DF808FB00BF24
:1010C0004DF808EDFFF7EAFF34BF012000205DF87E
:1010D00008FB00BF4DF808EDFFF7E0FF94BF0120CB
:1010E00000205DF808FB00BF4DF808EDFFF7D2FFC8
:1010F00094BF012000205DF808FB00BF4DF808ED0B
:10110000FFF7C8FF34BF012000205DF808FB00BFD7
:101110004FEA40024FEA41037FEA226C02D15FEAC4
:10112000402C08D17FEA236C02D15FEA412C02D126
:101130004FF0000070474FF0010070474FEA400247
:10114000B2F1FE4F0FD34FF09E03B3EB12620DD9F5
:101150004FEA002343F0004310F0004F23FA02F05F
:1011600018BF404270474FF00000704712F1610F06
:1011700001D1420205D110F0004008BF6FF00040DD
:1011800070474FF00000704742000ED2B2F1FE4FA0
:101190000BD34FF09E03B3EB126209D44FEA002346
:1011A00043F0004323FA02F070474FF0000070470D
:1011B00012F1610F01D1420202D14FF0FF307047AE
:1011C0004FF00000704700BF38B50C460546214679
:1011D000284600220023FFF7F1FB28B928462146C4
:1011E000BDE8384000F00AB8284604F1004100F09C
:1011F00005F8404261EB410138BD00BFD0B5002287
:101200000B4B06460F46FFF767F9FFF73DFC044618
:10121000FFF7E8F80022074BFFF75EF902460B469E
:1012200030463946FEF7A0FFFFF72EFC2146D0BD21
:101230000000F03D0000F0410FB480B582B000AF77
:1012400007F114033B603B683A6964210A4809F0DE
:101250005DFF094800F014F878607B689AB24FF49B
:101260007A730549054807F009F900BF0837BD46FC
:10127000BDE8804004B0704704020020E80D002063
:1012800080B485B000AF78600023FB6002E0FB68AB
:101290000133FB607B685A1C7A601B78002BF6D107
:1012A000FB6818461437BD4680BC7047000000003C
:1012B00084B0B0B592B000AF07F1580484E80F00D5
:1012C000D7F88C301846FFF7AFF8ABA3D3E900236B
:1012D000FFF702F902460B4610461946FFF7F4FBEA
:1012E000034618460CF062FD7864D7F88C30184637
:1012F000FFF79AF8A0A3D3E90023FFF7EDF8024621
:101300000B4610461946FFF7DFFB034618460CF064
:1013100015FD3864D7F890301846FFF785F896A386
:10132000D3E90023FFF7D8F802460B4610461946CA
:10133000FFF7CAFB034618460CF038FDF863D7F8F0
:1013400090301846FFF770F88BA3D3E90023FFF71E
:10135000C3F802460B4610461946FFF7B5FB034695
:1013600018460CF0EBFCB8637C6EBB6E796C1846CB
:10137000FFF708FD03461D46FB6E396C1846FFF764
:1013800001FD034619462846FFF7F4FB0346F96BB7
:101390001846FFF7F7FC034619462046FFF7EAFB1D
:1013A00003467B63BB6E396C1846FFF7EBFC0346C4
:1013B0001C46FB6E796C1846FFF7E4FC03461946A1
:1013C0002046FFF7D5FB03463B63BB6E796C18469E
:1013D000FFF7D8FC03461C46FB6E396C1846FFF736
:1013E000D1FC034619462046FFF7C4FB0346B96B00
:1013F0001846FFF77BFD0346FB627B6BBB623B6BD2
:101400007B62FB6A3B62B86AFFF70EF802460B4646
:101410005B48FFF711FF786AFFF706F802460B46B4
:101420005848FFF709FF386AFEF7FEFF02460B46F1
:101430005548FFF701FFB96A4FF07C50FFF798FB62
:1014400003461A46514B1A60796A4FF07C50FFF7F9
:101450008FFB03461A464D4B5A60396A4FF07C5059
:10146000FFF786FB03461A46484B9A60474B1B68BA
:1014700023F0004346491846FFF740FE0346002B81
:1014800016D1424B5B6823F0004341491846FFF7F1
:1014900035FE0346002B0BD13C4B9B6823F00043E9
:1014A0003B491846FFF72AFE0346002B00F02B812C
:1014B0003B6FFB617B6FBB61BB6F7B61F869FEF7C4
:1014C000B3FF02460B463348FFF7B6FEB869FEF796
:1014D000ABFF02460B463048FFF7AEFE7869FEF7D9
:1014E000A3FF02460B462D48FFF7A6FE7969786AEE
:1014F000FFF748FC03461C46B969386AFFF742FC0F
:10150000034619462046FFF733FB03463B61F96962
:10151000386AFFF737FC03461C467969B86AFFF75B
:1015200031FC034619462046FFF722FB0346FB60C9
:10153000B969B86AFFF726FC03461C46F969786A60
:10154000FFF720FC034619462046FFF711FB034630
:10155000BB601348FFF770FE12493869FFF712FCB1
:1015600003461A46104B1A600E49F868FFF70AFC4A
:1015700003461A461AE000BF11E226A246DF913F59
:10158000FC0501080C0601081C0601088C0300205C
:10159000CDCC4C3E2C0601083C0601084C06010847
:1015A0005C060108CDCCCCBD980300206E4B5A6080
:1015B0006E49B868FFF7E6FB03461A466A4B9A6025
:1015C000694B1B681846FEF72FFF02460B4668481A
:1015D000FFF732FE644B5B681846FEF725FF0246B4
:1015E0000B466448FFF728FE5F4B9B681846FEF7E2
:1015F0001BFF02460B466048FFF71EFE56A3D3E9C9
:1016000000235E48FFF718FE55A3D3E900235C488A
:10161000FFF712FE544B5B4A5A60534B594A9A608B
:10162000594B7B60504B5B6856491846FFF75EFC90
:10163000034655491846FFF7A5FB03461A464A4B91
:10164000DA60494B9B684F491846FFF74FFC034649
:101650004D491846FFF796FB03461A46424B1A615E
:10166000414BDB6879681846FFF740FC03461A4691
:101670003D4B5A613C4B1B6979681846FFF736FCB5
:1016800003461A46384B9A614048FFF7D5FD364B62
:10169000DB681846FEF7C8FE02460B463C48FFF7DB
:1016A000CBFD314B1B691846FEF7BEFE02460B46CA
:1016B0003848FFF7C1FD3848FFF7BEFD374805F051
:1016C0005DFF294B5B684FF000011846FFF7F8FCFF
:1016D0000346002B0BD0244BDB6823F00043184655
:1016E000FFF752FD0346184600F0BCF808E01E4B19
:1016F000DB681846FFF722FD0346184600F09AF80B
:101700002748FFF799FD184B9B684FF000011846DA
:10171000FFF7D6FC0346002B0BD0134B1B6923F0BD
:1017200000431846FFF730FD0346184600F06AF8FC
:1017300009E00D4B1B691846FFF700FD03461846EC
:1017400000F048F800BF4837BD46BDE8B04004B0DF
:10175000704700BFAFF30080000000A09999C93F17
:10176000000000000020DC4098030020CDCCCCBD60
:10177000780601088C060108A0060108B4060108D5
:10178000D0060108CDCC4C3E0000E146EC06010835
:10179000040701081407010824070108880F002026
:1017A0004407010880B500AF01220821024804F077
:1017B000DBFC00BF80BD00BF000C014080B500AF66
:1017C00000220821024804F0CFFC00BF80BD00BF0A
:1017D000000C014080B582B000AF7860074A7B689A
:1017E0005363064B00229A63FFF7DCFF0021044895
:1017F00005F094FF00BF0837BD4680BD00040040DF
:10180000C005002080B582B000AF7860074B002291
:101810005A63064A7B689363FFF7C4FF04210448B8
:1018200005F07CFF00BF0837BD4680BD00040040C6
:10183000C005002080B582B000AF7860074B002261
:10184000DA63064A7B681364FFF7ACFF0C21044897
:1018500005F064FF00BF0837BD4680BD00080040AA
:10186000A004002080B582B000AF7860074A7B6892
:10187000D363064B00221A64FFF794FF0821044843
:1018800005F04CFF00BF0837BD4680BD0008004092
:10189000A004002080B485B000AFF860B9607A6021
:1018A0003B60FB684FF000021A60FB684FF00002DB
:1018B0005A60BB681A68FB689A60FB684FF00002C8
:1018C000DA60FB684FF000021A61BB685A68FB6877
:1018D0005A617B681A68FB689A617B685A68FB6882
:1018E000DA613B681A68FB681A623B685A68FB68F1
:1018F0005A623B689A68FB689A6200BF1437BD461B
:1019000080BC704790B593B000AFF860B9607A6062
:101910003B60FB681B6818460CF048FA7864FB686B
:101920001B6818460CF00AFA3864FB685B681846B6
:101930000CF072FAF863796C7868FFF723FA0346C3
:101940001C46396C3868FFF71DFA034619462046D5
:10195000FFF710F90346F96B1846FFF713FA034631
:101960001946B868FFF706F90346BB63396C786817
:10197000FFF708FA03461C46796C3868FFF702FA4D
:10198000034619462046FFF7F3F803467B63FB68DE
:101990001C68B96BB86DFFF7F5F903461946204688
:1019A000FFF7E8F803461A46FB681A60FB685C68B4
:1019B000796BB86DFFF7E6F9034619462046FFF745
:1019C000D9F803461A46FB685A60FB681B6818463C
:1019D0000CF0ECF97864FB681B6818460CF0AEF963
:1019E0003864FB685B6818460CF016FAF863FB680D
:1019F0005B6818460CF0A2F9034619464FF07E507A
:101A0000FFF774FA03463B63396C7868FFF7BAF95D
:101A100003461C46796C3868FFF7B4F9034619464B
:101A20002046FFF7A5F80346F96B1846FFF7AAF919
:101A300003463B62796C7868FFF7A4F903461C46BD
:101A4000396C3868FFF79EF9034619462046FFF7C0
:101A500091F80346396B1846FFF794F90346396B42
:101A60001846FFF78FF903467B62796C7868FFF7B9
:101A700089F903461C46396C3868FFF783F9034639
:101A800019462046FFF776F8034683F00043BB6211
:101A90004FF00003FB623A6AFB689B6819461046E8
:101AA000FFF770F903461C467A6AFB681B69194602
:101AB0001046FFF767F9034619462046FFF75AF824
:101AC00003461C46FB689B683A6A11461846FFF7B6
:101AD00059F9034619462046FFF74CF803461C46C1
:101AE000FB68DB68BA6A11461846FFF74BF90346F4
:101AF00019462046FFF73EF803461A46FB689B69E5
:101B000019461046FFF736F803463B613A6AFB6810
:101B1000DB6819461046FFF735F903461C467A6A1A
:101B2000FB685B6919461046FFF72CF90346194616
:101B30002046FFF71FF803461C46FB689B687A6A3D
:101B400011461846FFF71EF9034619462046FFF7CF
:101B500011F803467B61BA6AFB689B681946104618
:101B6000FFF710F903461C46FB681B693A6A1146E9
:101B70001846FFF707F9034619462046FEF7FAFF15
:101B800003461C46FB685B69BA6A11461846FFF7B4
:101B9000F9F8034619462046FEF7ECFF0346BB6101
:101BA000BA6AFB68DB6819461046FFF7EBF8034694
:101BB0001C46FB681B697A6A11461846FFF7E2F873
:101BC000034619462046FEF7D5FF03461A46FB6832
:101BD000DB6919461046FEF7CDFF0346FB61FB6843
:101BE0009C683B69B96D1846FFF7CCF80346194667
:101BF0002046FEF7BFFF03461A46FB689A60FB6863
:101C0000DC687B69B96D1846FFF7BCF803461946D6
:101C10002046FEF7AFFF03461A46FB68DA60FB6812
:101C20001C69BB69B96D1846FFF7ACF80346194645
:101C30002046FEF79FFF03461A46FB681A61FB68C1
:101C40005C69FB69B96D1846FFF79CF803461946B5
:101C50002046FEF78FFF03461A46FB685A6100BF15
:101C60004C37BD4690BDF0B5C5B000AF07F10C04D0
:101C7000206007F108000160391D0A603A461360D0
:101C800007F1080319681868FFF77CF803461C463B
:101C90003B1D19681868FFF775F80346194620467A
:101CA000FEF768FF03461C463B4619681868FFF7B5
:101CB00069F8034619462046FEF75CFF03461846BE
:101CC0000CF020F9034619464FF07E50FFF70EF94D
:101CD0000346C7F8043107F10803D7F80411186860
:101CE000FFF750F80346C7F800313B1DD7F8041141
:101CF0001868FFF747F80346C7F8FC303B46D7F8AB
:101D000004111868FFF73EF80346C7F8F83007F1EA
:101D10000C031B681B6818460CF048F8C7F8F40061
:101D200007F10C031B681B6818460CF007F8C7F88E
:101D3000F00007F10C031B685B6818460CF036F8DE
:101D4000C7F8EC0007F10C031B685B6818460BF042
:101D5000F5FFC7F8E8004FF00003C7F8CC30D7F81C
:101D6000E830C7F8D030D7F8F03083F00043D7F828
:101D7000E8101846FFF706F80346C7F8D430D7F83E
:101D8000EC10D7F8F400FEF7FDFF0346C7F8D83093
:101D9000D7F8E810D7F8F400FEF7F4FF0346C7F8C9
:101DA000DC30D7F8EC10D7F8F000FEF7EBFF034675
:101DB000C7F8E03007F10C031B68DB68D7F8D020C8
:101DC00011461846FEF7DEFF0346C7F8B43007F1A8
:101DD0000C031B689B68D7F8D42011461846FEF701
:101DE000D1FF03461C4607F10C031B68DB68D7F8DC
:101DF000D82011461846FEF7C5FF0346194620466F
:101E0000FEF7B8FE0346C7F8B83007F10C031B68AD
:101E10009B68D7F8DC2011461846FEF7B3FF03464F
:101E20001C4607F10C031B68DB68D7F8E02011465D
:101E30001846FEF7A7FF034619462046FEF79AFE0E
:101E40000346C7F8BC3007F10C031B685B69D7F881
:101E5000D02011461846FEF795FF0346C7F8C0305C
:101E600007F10C031B681B69D7F8D42011461846EC
:101E7000FEF788FF03461C4607F10C031B685B69ED
:101E8000D7F8D82011461846FEF77CFF03461946BE
:101E90002046FEF76FFE0346C7F8C43007F10C0377
:101EA0001B681B69D7F8DC2011461846FEF76AFF4D
:101EB00003461C4607F10C031B685B69D7F8E0205A
:101EC00011461846FEF75EFF034619462046FEF708
:101ED00051FE0346C7F8C830D7F8D030D7F8C02035
:101EE00011461846FEF74EFF03461A4607F10C034B
:101EF0001B681B6A19461046FEF73CFE0346C7F8EE
:101F00009030D7F8D030D7F8C42011461846FEF7E5
:101F100039FF0346C7F89430D7F8D030D7F8C82037
:101F200011461846FEF72EFF0346C7F89830D7F83B
:101F3000D430D7F8B42011461846FEF723FF0346E5
:101F40001C46D7F8D830D7F8C02011461846FEF7FF
:101F500019FF034619462046FEF70CFE0346C7F854
:101F60009C30D7F8D430D7F8B82011461846FEF781
:101F700009FF03461C46D7F8D830D7F8C4201146CD
:101F80001846FEF7FFFE034619462046FEF7F2FD0F
:101F900003461A4607F10C031B685B6A1946104694
:101FA000FEF7E8FD0346C7F8A030D7F8D430D7F8DD
:101FB000BC2011461846FEF7E5FE03461C46D7F83E
:101FC000D830D7F8C82011461846FEF7DBFE034686
:101FD00019462046FEF7CEFD0346C7F8A430D7F8D1
:101FE000DC30D7F8B42011461846FEF7CBFE034686
:101FF0001C46D7F8E030D7F8C02011461846FEF747
:10200000C1FE034619462046FEF7B4FD0346C7F855
:10201000A830D7F8DC30D7F8B82011461846FEF7BC
:10202000B1FE03461C46D7F8E030D7F8C42011466D
:102030001846FEF7A7FE034619462046FEF79AFD0E
:102040000346C7F8AC30D7F8DC30D7F8BC201146CF
:102050001846FEF797FE03461C46D7F8E030D7F83F
:10206000C82011461846FEF78DFE03461946204645
:10207000FEF780FD03461A4607F10C031B689B6AB6
:1020800019461046FEF776FD0346C7F8B030D7F87C
:102090009040D7F8B030D7F8A02011461846FEF788
:1020A00071FE03461D46D7F8AC30D7F8A420114680
:1020B0001846FEF767FE034619462846FEF758FD08
:1020C000034619462046FEF75DFE03461D46D7F837
:1020D0009C40D7F8B030D7F8942011461846FEF748
:1020E00051FE03461E46D7F8AC30D7F8982011466B
:1020F0001846FEF747FE034619463046FEF738FD00
:10210000034619462046FEF73DFE0346194628467B
:10211000FEF72EFD03461D46D7F8A840D7F8A43099
:10212000D7F8942011461846FEF72CFE03461E46AB
:10213000D7F8A030D7F8982011461846FEF722FEAF
:10214000034619463046FEF713FD0346194620465E
:10215000FEF718FE034619462846FEF70BFD034618
:1021600019464FF07E50FEF7C1FE0346C7F8E43033
:10217000D7F8B030D7F8A02011461846FEF702FE77
:1021800003461C46D7F8AC30D7F8A42011461846B1
:10219000FEF7F8FD034619462046FEF7E9FC034624
:1021A000FB66D7F8B030D7F8942011461846FEF7F2
:1021B000E9FD03461C46D7F8AC30D7F89820114605
:1021C0001846FEF7DFFD034619462046FEF7D0FC11
:1021D000034683F000433B67D7F8A430D7F8942038
:1021E00011461846FEF7CEFD03461C46D7F8A03030
:1021F000D7F8982011461846FEF7C4FD0346194645
:102200002046FEF7B5FC03467B67D7F8B030D7F819
:102210009C2011461846FEF7B5FD03461C46D7F82C
:10222000A830D7F8A42011461846FEF7ABFD0346A8
:1022300019462046FEF79CFC034683F00043BB672B
:10224000D7F8B030D7F8902011461846FEF79AFD1F
:1022500003461C46D7F8A830D7F8982011461846F0
:10226000FEF790FD034619462046FEF781FC034623
:10227000FB67D7F8A430D7F8902011461846FEF730
:1022800081FD03461C46D7F89C30D7F898201146AC
:102290001846FEF777FD034619462046FEF768FC10
:1022A000034683F00043C7F88030D7F8AC30D7F846
:1022B0009C2011461846FEF765FD03461C46D7F8DC
:1022C000A830D7F8A02011461846FEF75BFD03465C
:1022D00019462046FEF74CFC0346C7F88430D7F871
:1022E000AC30D7F8902011461846FEF74BFD034658
:1022F0001C46D7F8A830D7F8942011461846FEF7A8
:1023000041FD034619462046FEF732FC034683F0A2
:102310000043C7F88830D7F8A030D7F8902011468E
:102320001846FEF72FFD03461C46D7F89C30D7F819
:10233000942011461846FEF725FD0346194620460F
:10234000FEF716FC0346C7F88C300023C7F80C31A3
:1023500034E00023C7F8083127E0D7F80C211346F2
:102360005B001344D7F8082113449B0007F58872DB
:10237000134453F8A43CD7F8E4101846FEF702FDC6
:1023800003461946D7F80C2113465B001344D7F8CF
:10239000082113449B0007F58872134443F8A41CDA
:1023A000D7F808310133C7F80831D7F80831022BC4
:1023B000D3D9D7F80C310133C7F80C31D7F80C3129
:1023C000022BC6D9D7F8D430BA6F11461846FEF79B
:1023D000D9FC03461C46D7F8DC30D7F884201146D8
:1023E0001846FEF7CFFC034619462046FEF7C2FB0F
:1023F00003467B65D7F8D430FA6F11461846FEF7CE
:10240000C1FC03461C46D7F8DC30D7F888201146BB
:102410001846FEF7B7FC034619462046FEF7AAFB0E
:102420000346BB65D7F8D430D7F88020114618464C
:10243000FEF7A8FC03461C46D7F8DC30D7F88C2002
:1024400011461846FEF79EFC034619462046FEF745
:1024500091FB0346FB65D7F8D030FA6E114618465B
:10246000FEF790FC03461C46D7F8D830BA6F1146E9
:102470001846FEF787FC034619462046FEF77AFB0E
:1024800003461C46D7F8E030D7F88420114618469A
:10249000FEF778FC034619462046FEF76BFB034621
:1024A0003B66D7F8D0303A6F11461846FEF76AFC03
:1024B00003461C46D7F8D830FA6F11461846FEF787
:1024C00061FC034619462046FEF754FB03461C46B2
:1024D000D7F8E030D7F8882011461846FEF752FCAE
:1024E000034619462046FEF745FB03467B66D7F8B0
:1024F000D0307A6F11461846FEF744FC03461C465E
:10250000D7F8D830D7F8802011461846FEF73AFCA5
:10251000034619462046FEF72DFB03461C46D7F816
:10252000E030D7F88C2011461846FEF72BFC034606
:1025300019462046FEF71EFB0346BB6607F10C0357
:102540001B689B687A6D11461846FEF71BFC034614
:102550001C4607F10C031B68DB683A6E11461846EF
:10256000FEF710FC034619462046FEF703FB034620
:10257000FB6307F10C031B689B68BA6D1146184694
:10258000FEF700FC03461C4607F10C031B68DB68E2
:102590007A6E11461846FEF7F5FB034619462046AB
:1025A000FEF7E8FA03463B6407F10C031B689B68DF
:1025B000FA6D11461846FEF7E5FB03461C4607F187
:1025C0000C031B68DB68BA6E11461846FEF7DAFB8F
:1025D000034619462046FEF7CDFA03467B6407F111
:1025E0000C031B681B697A6D11461846FEF7CAFB7F
:1025F00003461C4607F10C031B685B693A6E1146E3
:102600001846FEF7BFFB034619462046FEF7B2FA0E
:102610000346BB6407F10C031B681B69BA6D1146C6
:102620001846FEF7AFFB03461C4607F10C031B6878
:102630005B697A6E11461846FEF7A4FB03461946FD
:102640002046FEF797FA0346FB6407F10C031B686C
:102650001B69FA6D11461846FEF794FB03461C46AB
:1026600007F10C031B685B69BA6E11461846FEF74A
:1026700089FB034619462046FEF77CFA03463B6574
:102680003B6CD7F8D42011461846FEF77BFB034677
:102690001C46BB6CD7F8DC2011461846FEF772FBCF
:1026A000034619462046FEF765FA034619464FF0E1
:1026B0007E50FEF75DFA0346FB623B6CD7F8D820EC
:1026C00011461846FEF75EFB03461C46BB6CD7F866
:1026D000E02011461846FEF755FB034619462046F2
:1026E000FEF748FA034683F000433B63FB6CD7F8E0
:1026F000D42011461846FEF745FB03461C463B6DA9
:10270000D7F8DC2011461846FEF73CFB0346194675
:102710002046FEF72FFA034683F000437B63FB6CF1
:10272000D7F8D82011461846FEF72CFB03461C4666
:102730003B6DD7F8E02011461846FEF723FB034611
:1027400019462046FEF716FA034619464FF07E500A
:10275000FEF70EFA0346BB63FA6A07F10C031B6827
:102760009B6819461046FEF70DFB03461C463A6B64
:1027700007F10C031B681B6919461046FEF702FBA4
:10278000034619462046FEF7F5F90346FB61FA6A4F
:1027900007F10C031B68DB6819461046FEF7F2FAD6
:1027A00003461C463A6B07F10C031B685B6919462C
:1027B0001046FEF7E7FA034619462046FEF7DAF917
:1027C00003463B627A6B07F10C031B689B68194652
:1027D0001046FEF7D7FA03461C46BA6B07F10C0306
:1027E0001B681B6919461046FEF7CCFA03461946CA
:1027F0002046FEF7BFF903467B627A6B07F10C03B4
:102800001B68DB6819461046FEF7BCFA03461C46F7
:10281000BA6B07F10C031B685B6919461046FEF79B
:10282000B1FA034619462046FEF7A4F90346BB62F7
:10283000FA6907F10C031B689A603A6A07F10C0306
:102840001B68DA607A6A07F10C031B681A61BA6ABE
:1028500007F10C031B685A6107F10C031B685B68E6
:1028600018460BF0A3FA024607F110031A6007F1AD
:102870000C031B685B6818460BF060FA034683F094
:10288000004407F10C031B681B6818460BF08EFA16
:10289000034619462046FEF775FA03461A4607F125
:1028A00010035A6007F10C031B685B6818460BF0B5
:1028B00045FA034683F0004407F10C031B681B68CC
:1028C00018460BF03BFA034619462046FEF75AFA23
:1028D00003461A4607F110039A60FC6B07F11003D8
:1028E0001B681946D7F80001FEF742F9034619465E
:1028F0002046FEF747FA03461D463C6C07F11003DD
:102900005B681946D7F8FC00FEF732F90346194612
:102910002046FEF737FA034619462846FEF72AF9FD
:1029200003461D467C6C07F110039B681946D7F8D7
:10293000F800FEF71DF9034619462046FEF722FA75
:10294000034619462846FEF715F903461A4607F1CD
:102950000C031B681A60BC6C07F110031B68194656
:10296000D7F80001FEF704F9034619462046FEF7A2
:1029700009FA03461D46FC6C07F110035B68194613
:10298000D7F8FC00FEF7F4F8034619462046FEF798
:10299000F9F9034619462846FEF7ECF803461D46AA
:1029A0003C6D07F110039B681946D7F8F800FEF755
:1029B000DFF8034619462046FEF7E4F903461946B8
:1029C0002846FEF7D7F803461A4607F10C031B68A2
:1029D0005A6000BF07F58A77BD46F0BD80B582B06A
:1029E00000AF78606021104800F0B8FE0346012B6C
:1029F00013D10E48FEF720FC012003F04DF8786853
:102A000000F0C0FA0346012B03D00948FEF714FC7E
:102A100006E00848FEF710FC02E00748FEF70CFC51
:102A200000BF0837BD4680BD341000206007010894
:102A300084070108A8070108CC07010880B500AF8A
:102A40003B21484800F012FE03461A46464B1A70D6
:102A50003C21444800F00AFE03461A46424B5A7095
:102A60003D21404800F002FE03461A463E4B9A7054
:102A70003E213C4800F0FAFD03461A463A4BDA7014
:102A80003F21384800F0F2FD03461A46364B1A71D2
:102A90004021344800F0EAFD03461A46324B5A7191
:102AA0004321304800F0E2FD03461A462E4B9A714E
:102AB00044212C4800F0DAFD03461A462A4BDA710D
:102AC0004521284800F0D2FD03461A46264B1A72CB
:102AD0004621244800F0CAFD03461A46224B5A728A
:102AE0004721204800F0C2FD03461A461E4B9A7249
:102AF00048211C4800F0BAFD03461A461A4BDA7208
:102B00002821184800F0D6FD03461A46164B1A73C2
:102B10002921144800F0CEFD03461A46124B5A7381
:102B20002A21104800F0C6FD03461A460E4B9A7340
:102B30002B210C4800F0BEFD03461A460A4BDA73FF
:102B40002C21084800F0B6FD03461A46064B1A74BD
:102B50002D21044800F0AEFD03461A46024B5A747C
:102B600000BF80BD34100020200F002080B483B04F
:102B700000AF786039607B685B69134A13607B68DB
:102B80009B69114A53607B68DB690F4A93607B68DD
:102B90001B6A0D4AD3607B685B6A0B4A13617B68D2
:102BA0009B6A094A53613B689B68074A93613B688B
:102BB000DB68054AD3613B681B69034A136200BFA7
:102BC0000C37BD4680BC7047340F00202DE9B04360
:102BD000BAB006AF78600023C7F8CC3026E007F122
:102BE0009C02D7F8CC301B011344A14AA1491846D6
:102BF00001F0E0F807F16C02D7F8CC301B01134468
:102C00009B4A9D49184601F0D5F807F13C02D7F8D8
:102C1000CC301B011344964A4FF07E51184601F008
:102C2000C9F8D7F8CC300133C7F8CC30D7F8CC305E
:102C3000022BD4DD914B1A6807F19C03114618460C
:102C400001F0F2F88D4B5A6807F19C0310331146DE
:102C5000184601F0E9F8894B9A6807F19C03203384
:102C60001146184601F0E0F8844BDA6807F16C036E
:102C70001146184601F0D8F8804B1A6907F16C0329
:102C800010331146184601F0CFF87C4B5A6907F112
:102C90006C0320331146184601F0C6F8774B9A6949
:102CA00007F13C031146184601F0BEF8734BDA6990
:102CB00007F13C0310331146184601F0B5F86F4B8D
:102CC0001A6A07F13C0320331146184601F0ACF8AC
:102CD000D7F8A430BB60D7F8B430FB60D7F8C43065
:102CE0003B617B6F7B61D7F88430BB61D7F8943050
:102CF000FB617B6C3B627B6D7B627B6EBB625F4B7F
:102D00001B68BB605D4B5B68FB605C4B9B683B6119
:102D10005A4BDB687B61594B1B69BB61574B5B6945
:102D2000FB61564B9B693B62544BDB697B62534BA7
:102D30001B6ABB623B6A3A6A11461846FEF722F8E4
:102D400003461C467B6A7A6A11461846FEF71AF853
:102D5000034619462046FDF70DFF03461C46BB6A95
:102D6000BA6A11461846FEF70DF803461946204682
:102D7000FDF700FF03461846FDF756FB02460B46DB
:102D8000104619460BF06CF802460B46C7E90C23B7
:102D90003B48FEF751FA3B48FEF74EFABB6818462F
:102DA000FDF742FB80468946FB681846FDF73CFB71
:102DB00004460D463B691846FDF736FB02460B46B6
:102DC000CDE90223CDE9004542464B462E48FEF7A9
:102DD00033FA2E48FEF730FA7B691846FDF724FBDC
:102DE00080468946BB691846FDF71EFB04460D4622
:102DF000FB691846FDF718FB02460B46CDE9022396
:102E0000CDE9004542464B462148FEF715FA2148D8
:102E1000FEF712FA3B6A1846FDF706FB8046894624
:102E20007B6A1846FDF700FB04460D46BB6A184650
:102E3000FDF7FAFAD7E90C23CDE90423CDE9020125
:102E4000CDE9004542464B461348FEF7F5F97B684D
:102E50001D4607F108040FCC0FC50FCC0FC594E831
:102E60000F0085E80F007868D037BD46BDE8B08315
:102E70000AD7233C0000A0400000C841340F0020C6
:102E8000F007010818080108280801084C08010883
:102E90005C080108800801088C08010880B584B02E
:102EA00000AFF860B9607A60FFF7C8FDB86800F05D
:102EB0005DFA786800F07CFC7968B868FFF756FE28
:102EC000FB681846FFF782FEF8681037BD4680BDE4
:102ED00080B582B000AFFB1D1A460121752000F0BD
:102EE00005F8FB7918460837BD4680BD80B582B02D
:102EF00000AF03463A60FB710B46BB71B979FB79B1
:102F00003A68184600F004F800BF0837BD4680BD97
:102F100080B584B000AF03463A60FB710B46BB71CD
:102F2000002000F01DF8FB7963F07F03DBB2FB7338
:102F300007F10F0164230122084803F0BFFDBB79AC
:102F40009AB264233968054803F0FCFE012000F0C2
:102F500007F800BF1037BD4680BD00BF3410002009
:102F600080B582B000AF0346FB71FB791A464FF47F
:102F70008051034803F0F8F800BF0837BD4680BD14
:102F8000000C014080B584B000AF7860FFF7A0FF6F
:102F9000FFF79EFF0346702B28D16B23FB730023A2
:102FA000BB73BA7BFB7B0121184600F02DF86A2326
:102FB000FB731023BB73BA7BFB7B0121184600F027
:102FC00023F81123BB73042000F078F87B6893F892
:102FD00058301946786800F087F87B6893F85930C4
:102FE0001946786800F0DCF8012307E0FFF770FF6E
:102FF000034619460348FEF71FF900231846103709
:10300000BD4680BDD008010880B582B000AF034640
:10301000FB710B46BB7113467B717A1DB979FB7945
:10302000184600F007F80A2002F036FD00BF083706
:10303000BD4680BD80B582B000AF03463A60FB71EB
:103040000B46BB710020FFF78BFFFB79184600F0A1
:1030500017F80AE03B681B78184600F011F8BB79B6
:10306000013BBB713B6801333B60BB79002BF1D165
:103070000120FFF775FF00BF0837BD4680BD000087
:1030800080B586B002AF0346FB710023FB7307F1E6
:103090000F02F91D4FF4805300930123064803F0FB
:1030A0006AFF0346002B01D0FF2300E0FB7B18469C
:1030B0001037BD4680BD00BF3410002080B582B0FF
:1030C00000AF0346FB71FB791A4601211D20FFF773
:1030D0009BFFFB791A4601211A20FFF795FF00BFDD
:1030E0000837BD4680BD000080B584B000AF786071
:1030F0000B46FB701C23FB73FB78032B3ED801A20D
:1031000052F823F0153100082F310008493100082A
:10311000633100087B684FF08D42DA600023BB7397
:10312000BA7BFB7B01211846FFF76EFF33E07B681B
:103130004FF08C42DA600823BB73BA7BFB7B012122
:103140001846FFF761FF26E07B684FF08B42DA609C
:103150001023BB73BA7BFB7B01211846FFF754FF9A
:1031600019E07B684FF08A42DA601823BB73BA7BA0
:10317000FB7B01211846FFF747FF0CE07B684FF00F
:103180008C42DA600823BB73BA7BFB7B01211846B3
:10319000FFF73AFF00BF00BF1037BD4680BD00BF3C
:1031A00080B584B000AF78600B46FB701B23FB73C7
:1031B000FB78032B3AD801A252F823F0CD31000856
:1031C000E5310008FD310008153200087B681F4A10
:1031D0001A610023BB73BA7BFB7B01211846FFF702
:1031E00013FF2FE07B681A4A1A610823BB73BA7B6E
:1031F000FB7B01211846FFF707FF23E07B68154A98
:103200001A611023BB73BA7BFB7B01211846FFF7C1
:10321000FBFE17E07B68104A1A611823BB73BA7B68
:10322000FB7B01211846FFF7EFFE0BE07B68084AA5
:103230001A610823BB73BA7BFB7B01211846FFF799
:10324000E3FE00BF00BF1037BD4680BD0000034352
:1032500000008342333303423333834180B586B069
:1032600000AF78603B21404800F000FA03463B7213
:103270003C213D4800F0FAF903467B723D213A4873
:1032800000F0F4F90346BB723E21374800F0EEF936
:103290000346FB723F21344800F0E8F903463B73D4
:1032A0004021314800F0E2F903467B7343212E4868
:1032B00000F0DCF90346BB7344212B4800F0D6F93B
:1032C0000346FB734521284800F0D0F903463B74C0
:1032D0004621254800F0CAF903467B74472122485D
:1032E00000F0C4F90346BB7448211F4800F0BEF942
:1032F0000346FB743B7A1B021AB27B7A1BB2134360
:103300001AB27B681A80BB7A1B021AB2FB7A1BB214
:1033100013431AB27B685A803B7B1B021AB27B7B39
:103320001BB213431AB27B689A80BB7B1B021AB292
:10333000FB7B1BB213431AB27B68DA803B7C1B0217
:103340001AB27B7C1BB213431AB27B681A81BB7C16
:103350001B021AB2FB7C1BB213431AB27B685A8160
:1033600000BF1837BD4680BD3410002080B582B044
:1033700000AF7860786800F007F800BF0837BD46F6
:1033800080BD0000000000002DE9B04386B004AF0E
:1033900078607868FFF762FF7B68B3F90030184601
:1033A000FDF730F89EA3D3E90023FCF7DDFE0246CB
:1033B0000B4610461946FDF787FB02467B685A61AB
:1033C0007B68B3F902301846FDF71CF896A3D3E9E1
:1033D0000023FCF7C9FE02460B4610461946FDF7CE
:1033E00073FB02467B689A617B68B3F90430184628
:1033F000FDF708F88EA3D3E90023FCF7B5FE0246DB
:103400000B4610461946FDF75FFB02467B68DA6102
:103410007B68B3F900301846FDF760FC02467B6814
:10342000DB6819461046FDF761FD03461A467B68C6
:103430005A617B68B3F902301846FDF74FFC02462B
:103440007B68DB6819461046FDF750FD03461A46B7
:103450007B689A617B68B3F904301846FDF73EFC3F
:1034600002467B68DB6819461046FDF73FFD0346C0
:103470001A467B68DA617B68B3F906301846FCF7B8
:10348000C1FF6DA3D3E90023FCF770FE02460B4693
:1034900010461946FDF718FB02467B681A627B68E6
:1034A000B3F908301846FCF7ADFF65A3D3E9002354
:1034B000FCF75AFE02460B4610461946FDF704FB80
:1034C00002467B685A627B68B3F90A301846FCF7FB
:1034D00099FF5DA3D3E90023FCF748FE02460B46A3
:1034E00010461946FDF7F0FA02467B689A627B683F
:1034F0001A6A7B681B6919461046FDF7F7FC0346FC
:103500001846FCF791FF52A3D3E90023FCF7E4FF30
:1035100002460B4610461946FDF7D6FA02467B686E
:103520001A627B685A6A7B681B6919461046FDF768
:10353000DDFC03461846FCF777FF45A3D3E90023DB
:10354000FCF7CAFF02460B4610461946FDF7BCFAC7
:1035500002467B685A627B689A6A7B681B691946D7
:103560001046FDF7C3FC03461846FCF75DFF38A381
:10357000D3E90023FCF7B0FF02460B46104619467C
:10358000FDF7A2FA02467B689A623348FDF754FEC3
:103590003248FDF751FE7B685B691846FCF744FF33
:1035A000804689467B689B691846FCF73DFF0446C8
:1035B0000D467B68DB691846FCF736FF02460B4672
:1035C000CDE90223CDE9004542464B462448FDF7AC
:1035D00033FE2448FDF730FE7B681B6A1846FCF773
:1035E00023FF804689467B685B6A1846FCF71CFF10
:1035F00004460D467B689B6A1846FCF715FF024699
:103600000B46CDE90223CDE9004542464B4616481C
:10361000FDF712FE00BF0837BD46BDE8B08300BF0E
:10362000EFC9C342ADE18040D9CEF753E39568407E
:1036300017D9CEF7D3099840A69BC420B0266F4077
:103640001B2FDD2406B171403108AC1C5A640940BF
:1036500011E226A246DF913FEC0801081409010897
:1036600024090108480901085809010880B584B0F7
:1036700000AF78600B46FB70FB7863F07F03DBB232
:10368000FB700020FFF76CFCF91C642301227868B2
:1036900003F014FA07F10F0164230122786803F0A4
:1036A00051FB0120FFF75CFCFB7B18461037BD4641
:1036B00080BD000080B584B000AF78600B46FB7021
:1036C000FB7863F07F03DBB2FB70002210210D4812
:1036D00002F04AFDF91C64230122786803F0EEF938
:1036E00007F10F0164230122786803F02BFB01220C
:1036F0001021044802F038FDFB7B18461037BD4608
:1037000080BD00BF0008014080B582B000AF786086
:103710000B46FB701346BB70FB7803F07F03DBB2F4
:10372000FB70002210210C4802F01EFDF91C6423DE
:103730000122786803F0C2F9B91C64230122786879
:1037400003F0BCF901221021034802F00DFD00BF77
:103750000837BD4680BD00BF0008014080B584B079
:1037600000AF78600B46FB707423FB73FB7B1A463B
:1037700020217868FFF7C8FFFB781A462121786876
:10378000FFF7C2FF0023BB73BB7B1A462221786878
:10379000FFF7BAFF0C237B737B7B1A4623217868E3
:1037A000FFF7B2FF012318461037BD4680BD000069
:1037B0002DE9B0438AB006AF786028216248FFF750
:1037C00079FF03463B7229215F48FFF773FF0346E9
:1037D0007B722A215C48FFF76DFF0346BB722B21E9
:1037E0005948FFF767FF0346FB722C215648FFF745
:1037F00061FF03463B732D215348FFF75BFF0346F0
:103800007B737B7A1B021AB23B7A1BB213431AB248
:103810007B681A80FB7A1B021AB2BB7A1BB2134375
:103820001AB27B685A807B7B1B021AB23B7B1BB2AD
:1038300013431AB27B689A807B68B3F9003018464C
:10384000FDF74CFA034641491846FDF79BFA03463B
:103850001A467B689A607B68B3F902301846FDF718
:103860003DFA034639491846FDF78CFA03461A46D5
:103870007B68DA607B68B3F904301846FDF72EFAEE
:10388000034632491846FDF77DFA03461A467B681F
:103890001A617B689A687B689B6819461046FDF739
:1038A00071FA03461C467B68DA687B68DB68194658
:1038B0001046FDF767FA034619462046FDF75AF908
:1038C00003461C467B681A697B681B6919461046CB
:1038D000FDF758FA034619462046FDF74BF9034613
:1038E0001846FCF7A1FD02460B46104619460AF0A1
:1038F000B7FA02460B467968C1E906237B689B68E4
:103900001846FCF791FD804689467B68DB681846BF
:10391000FCF78AFD04460D467B681B691846FCF7D8
:1039200083FD7B68D3E90623CDE90423CDE90201B9
:10393000CDE9004542464B460548FDF77DFC00BFFA
:103940001037BD46BDE8B0833410002068916D3D4E
:103950007C09010880B586B000AF072200215B48D2
:1039600005F058FC5A4B00221A7041F658330722D2
:103970005649584804F00DFE0346002B40F0948051
:103980005548FDF759FC00237B610AE04F4A7B69EB
:1039900013441B7819465148FDF74EFC7B690133EF
:1039A0007B617B69062BF1DD4D48FDF745FC00236B
:1039B000FB71464B1B78FA799A4211D100233B6187
:1039C0000BE03B690133414AD15C404A3B691344F7
:1039D0000A461A703B6901333B613B69062BF0D9FB
:1039E0003A4B1B78532B30D1384B5B797E2B2CD143
:1039F0003C48FDF721FC4FF4FA6307223349354870
:103A000004F03CFD0346002B5CD13748FDF714FC65
:103A10000023FB600AE02D4AFB6813441B7819461B
:103A20002E48FDF709FCFB680133FB60FB68062BA1
:103A3000F1DD2B48FDF700FC254B01221A7007220F
:103A40000021224805F0E6FB3CE02848FDF7F4FBA6
:103A50004FF4FA6307221D491E4804F00FFD034688
:103A6000002B2FD12248FDF7E7FB0023BB600AE0C3
:103A7000164ABB6813441B7819461848FDF7DCFB4F
:103A8000BB680133BB60BB68062BF1DD1448FDF752
:103A9000D3FB072200210D4805F0BCFB0C4B002294
:103AA0001A70FFF757FF0DE0094B00221A701148FA
:103AB000FDF7C2FB07220021044805F0ABFBFFF72E
:103AC00049FFFFE700BF1837BD4680BDD403002083
:103AD000310F0020E8040020B8090108E8090108B6
:103AE000F0090108F40901081C0A0108480A010844
:103AF000740A0108A40A010880B588B000AF072243
:103B000000219E4805F086FB41F6583307229B4969
:103B10009B4804F03EFD0346002B40F01681994877
:103B2000FDF78AFB0023FB610AE0944AFB6913441A
:103B30001B7819469448FDF77FFBFB690133FB6155
:103B4000FB69062BF1DD9148FDF776FB0023FB7145
:103B50008A4B1B78FA799A4211D10023BB610BE0A2
:103B6000BB690133854AD15C844ABB6913440A4668
:103B70001A70BB690133BB61BB69062BF0D97F4B5F
:103B80001B78532B40F0AF807C4B5B797E2B40F051
:103B9000AA807A4B5B780A2B40F0E880774B9B78C1
:103BA0000D2B40F0E380754BDB780C2B40F0DE8072
:103BB0007748FDF741FB714B1B79012B02D0022B9B
:103BC0002FD05DE0734B01221A60734B01221A6003
:103BD0004FF4FA6307226949694804F04FFC034631
:103BE000002B7CD16D48FDF727FB00237B610AE0A9
:103BF000624A7B6913441B7819466348FDF71CFB36
:103C00007B6901337B617B69062BF1DD5F48FDF742
:103C100013FB07220021594805F0FCFA5D4B1B6895
:103C2000A7E05C4B02221A605B4B02221A604FF441
:103C3000FA6307225149524804F020FC0346002B46
:103C40004FD15748FDF7F8FA00233B610AE04B4A91
:103C50003B6913441B7819464B48FDF7EDFA3B6965
:103C600001333B613B69062BF1DD4848FDF7E4FA7F
:103C700007220021414805F0CDFA464B1B6878E049
:103C8000444B01221A60444B01221A604FF4FA633C
:103C900007223A493A4804F0F1FB0346002B65D16C
:103CA0003E48FDF7C9FA0023FB600AE0334AFB688F
:103CB00013441B7819463448FDF7BEFAFB680133FC
:103CC000FB60FB68062BF1DD3048FDF7B5FA0722F3
:103CD00000212A4805F09EFA2E4B1B6849E000BFE0
:103CE00044E000BF42E02F48FDF7A6FA4FF4FA6324
:103CF00007222249224804F0C1FB0346002B36D19B
:103D00002948FDF799FA0023BB600AE01B4ABB680B
:103D100013441B7819461C48FDF78EFABB68013323
:103D2000BB60BB68062BF1DD1848FDF785FA07225A
:103D300000211E4805F06EFA164B00221A60164B41
:103D400000221A60FFF7D8FE11E01948FDF774FA57
:103D500007220021094805F05DFA0E4B00221A6087
:103D60000D4B00221A60FFF7C7FE00E000BF094BB1
:103D70001B6818462037BD4680BD00BFCC0300201D
:103D8000E8040020D80A0108E8090108F009010840
:103D9000F40901086802002078020020040B0108E1
:103DA000240B0108440B0108680B0108D403002010
:103DB000900B010880B586B000AFF860B9607A60FA
:103DC0001849B868FCF7DEFF034619464FF07E50ED
:103DD000FDF78CF803467B6179697868FCF7CAFEC9
:103DE000034619467868FDF781F803461A46FB68D2
:103DF0001A6079697868FCF7BDFE03461946786950
:103E0000FDF774F803461A46FB685A60FB684FF0EA
:103E100000029A60FB684FF00002DA6000BF1837BA
:103E2000BD4680BDF90FC94090B583B000AF786042
:103E300039607B689A687B68DA607B681B683968E0
:103E40001846FCF79FFF03461C467B685A687B6850
:103E5000DB6819461046FCF795FF034619462046D5
:103E6000FCF788FE03461A467B689A607B689B686D
:103E700018460C37BD4690BDF0B587B000AF7860EE
:103E800039604FF000037B614FF000033B617B68BA
:103E90005C687B689B689C491846FCF76BFE034690
:103EA00019462046FDF722F80346184609F03AFE67
:103EB00003461846FCF7B8FA8FA3D3E90023FCF7B2
:103EC0000BFB02460B4610461946FCF7FDFD034668
:103ED0007B617B681B688D491846FDF707F8034630
:103EE000184609F0E9FF03461846FCF79DFA82A33D
:103EF000D3E90023FCF7F0FA02460B4610461946B8
:103F0000FCF7E2FD03463B613B687A691A603B6857
:103F10003A695A604FF000037B614FF000033B6148
:103F20007B68DC683869FCF77FFA75A3D3E9002366
:103F3000FCF7D2FA02460B4610461946FCF7C4FDC0
:103F40000346184609F068FF05467869FCF76CFAE5
:103F50006BA3D3E90023FCF7BFFA02460B461046D9
:103F60001946FCF7B1FD0346184609F01FFF02464B
:103F70007B681B6919461046FCF704FF03461E4682
:103F80007869FCF751FA5EA3D3E90023FCF7A4FAA1
:103F900002460B4610461946FCF796FD03461846A6
:103FA00009F0CCFE02467B685B6919461046FCF7B7
:103FB000E9FE034619463046FCF7DCFD0346194688
:103FC0002846FCF7DFFE034619462046FCF7D2FDE3
:103FD0000346FB607869FCF727FA49A3D3E900237D
:103FE000FCF77AFA02460B4610461946FCF76CFDC0
:103FF0000346184609F0A2FE02467B681B69194673
:104000001046FCF7BFFE03461C467869FCF70CFA25
:104010003BA3D3E90023FCF75FFA02460B461046A8
:104020001946FCF751FD0346184609F0BFFE02464B
:104030007B685B6919461046FCF7A4FE03461946E7
:104040002046FCF795FD0346BB607869FCF7ECF968
:104050002BA3D3E90023FCF73FFA02460B46144694
:104060001D46F868FCF7E0F902460B462046294653
:10407000FCF77CF802460B46104619461EA3D3E90E
:104080000023FCF729FA02460B4610461946FCF7B6
:104090001BFD03467B613869FCF7C6F918A3D3E919
:1040A0000023FCF719FA02460B4614461D46B86871
:1040B000FCF7BAF902460B4620462946FCF756F8AB
:1040C00002460B46104619460BA3D3E90023FCF722
:1040D00003FA02460B4610461946FCF7F5FC034668
:1040E0003B613B687A699A603B683A69DA6000BF75
:1040F0001C37BD46F0BD00BFB0CB631ADCA54C40F9
:1041000011E226A246DF913FBD378635C3F51C413B
:10411000F0B589B000AF786039603B685B68FB61DF
:104120003B681B68BB617B685C687B689B68564921
:104130001846FCF71FFD034619462046FCF7D6FE3D
:104140000346184609F0EEFC78617B681B684F490E
:104150001846FCF7CBFE0346184609F0ADFE386161
:104160007B68DC68F86909F057FE0546B86909F014
:104170001DFE02467B681B6919461046FCF702FECD
:1041800003461E46B86909F0D9FD02467B685B69A3
:1041900019461046FCF7F6FD034619463046FCF773
:1041A000E9FC034619462846FCF7ECFD0346194690
:1041B0002046FCF7DFFC0346FB60B86909F0BEFD52
:1041C00002467B681B6919461046FCF7DBFD034677
:1041D0001C46B86909F0EAFD02467B685B6919462E
:1041E0001046FCF7CFFD034619462046FCF7C0FCFD
:1041F0000346BB6026497869FCF7C4FD03461C46AC
:10420000F968B869FCF7B6FC034622491846FCF782
:10421000B9FD034619462046FCF7ACFC0346BB61DA
:104220001B493869FCF7AEFD03461C46B968F869BE
:10423000FCF7A0FC034617491846FCF7A3FD03460C
:1042400019462046FCF796FC0346FB613B68FA6979
:104250005A603B68BA691A603B681B681846FCF7ED
:10426000E3F802460B460C48FCF7E6FF3B685B6848
:104270001846FCF7D9F802460B460848FCF7DCFF65
:1042800000BF2437BD46F0BDBD378635C3F51C41A0
:10429000CDCC4C3D3333733FBC0B0108E40B01081C
:1042A0002DE9B043A2B002AF78603960BE4BFB6726
:1042B000BE4BBB67BE4B7B67BB6FFB64BB6F3B6595
:1042C0007B6F3B647B6F7B647B6FBB64FB6FBB630B
:1042D000FB6FFB634FF000033B674FF00003FB668F
:1042E0004FF00003BB664FF000037B664FF0000306
:1042F0003B664FF00003FB657B681B683B677B6890
:104300005B68FB667B689B68BB667B68DB687B667B
:104310007B681B693B667B685B69FB6507F1400353
:1043200007F14C0207F1380107F10C00FDF7B2FA72
:1043300007F10C009F4B0093FB6D3A6E796EFDF711
:10434000E1FA07F10C00BB6EFA6E396FFDF78BFCDA
:104350003A693B685A60FA683B681A60964B9B69F9
:104360001846FCF761F804460D463B685B68184642
:10437000FCF75AF802460B461046194609F04AFB6C
:1043800002460B4620462946FCF7A6F802460B4695
:1043900090469946884BDB691846FCF745F8044679
:1043A0000D463B681B681846FCF73EF802460B4674
:1043B0001046194609F070FB02460B462046294676
:1043C000FCF78AF802460B4614461D463B685B68BC
:1043D0001846FCF729F802460B461046194609F024
:1043E0005BFB02460B4620462946FCF775F8024661
:1043F0000B4640464946FBF7B7FE02460B46904641
:1044000099466D4B1B6A1846FCF70EF804460D469C
:104410003B681B681846FCF707F802460B46104637
:10442000194609F0F7FA02460B4620462946FCF7E2
:1044300053F802460B4614461D463B685B68184617
:10444000FBF7F2FF02460B461046194609F024FB23
:1044500002460B4620462946FCF73EF802460B462C
:1044600040464946FBF782FE02460B461046194677
:10447000FCF72AFB0346BB654F4BDB691846FBF78D
:10448000D3FF04460D463B681B681846FBF7CCFF7C
:1044900002460B461046194609F0BCFA02460B4686
:1044A00020462946FCF718F802460B4690469946E6
:1044B000414B1B6A1846FBF7B7FF04460D463B68A5
:1044C0001B681846FBF7B0FF02460B46104619461C
:1044D00009F0E2FA02460B4620462946FBF7FCFFAC
:1044E00002460B4640464946FBF740FE02460B4655
:1044F00010461946FCF7E8FA03467B65786DFBF732
:1045000093FF04460D46B86DFBF78EFF02460B463F
:104510002046294609F0A2FC02460B4610461946E1
:10452000FCF7D2FA02463B689A603B691846FBF7F3
:104530007BFF1BA3D3E90023FBF7CEFF02460B460C
:1045400010461946FCF7C0FA02463B685A60FB6801
:104550001846FBF769FF12A3D3E90023FBF7BCFF62
:1045600002460B4610461946FCF7AEFA02463B6877
:104570001A603B689B681846FBF756FF08A3D3E90F
:104580000023FBF7A9FF02460B4610461946FCF72D
:104590009BFA02463B689A603B685B6818460DE0F0
:1045A000B0CB631ADCA54C40CDCCCC3D6F12833A26
:1045B0005839343C0BD7233C90050020FBF734FFDF
:1045C00002460B460D48FCF737FE3B681B68184651
:1045D000FBF72AFF02460B460948FCF72DFE3B6815
:1045E0009B681846FBF720FF02460B460548FCF780
:1045F00023FE00BF8037BD46BDE8B0830C0C010828
:104600002C0C01084C0C010884B080B500AF07F1F8
:10461000080C8CE80F000A4907F10800FFF72CFC92
:10462000084907F10800FFF773FD064907F1080084
:10463000FFF736FE00BFBD46BDE8804004B07047BE
:10464000080600203C04002080B487B000AFF8606A
:10465000B9607A6000237B611EE07B695B00FA68C9
:104660001344B3F900301B121AB27B695B00194680
:10467000BB680B44D2B21A707B695B00FA681344C2
:10468000B3F900107B695B000133BA681344CAB206
:104690001A707B6901337B617A697B689A42DCDB43
:1046A00000BF00BF1C37BD4680BC7047F0B599B055
:1046B00008AF78637B6B914A934240F07C81904BCA
:1046C0001B6801338E4A13608D4B1B68B3F57A7FEC
:1046D0000CD38C4B1B6801338A4A13608A4B1B68CE
:1046E0000133894A1360864B00221A60864B1B688F
:1046F0003C2B40F06081FDF761F8834B00221A608B
:104700008248FCF799FD7D4802F08AFF804B1B68C8
:1047100080491846FCF736FB03461846FCF70EFDA9
:1047200003461AB27C4B5A82794B5B68794918462A
:10473000FCF728FB03461846FCF700FD03461AB2B7
:10474000754B9A82724B9B6872491846FCF71AFBAC
:1047500003461846FCF7F2FC03461AB26E4BDA82A7
:104760006B4B5B696B491846FCF70CFB034618461C
:10477000FCF7E4FC03461AB2674B1A83644B9B694F
:1047800064491846FCF7FEFA03461846FCF7D6FCC7
:1047900003461AB2604B5A83604C3B46604A6149FB
:1047A0001846FEF77BFB25463C460FCC0FC50FCCC9
:1047B0000FC594E80F0085E80F00584E6D4606F1CE
:1047C00010040FCC0FC594E80F0085E80F0096E8A1
:1047D0000F00FFF719FF514BDB684E491846FCF7F5
:1047E000D1FA03461846FCF7A9FC03461AB24A4B15
:1047F0009A834A4B1B6947491846FCF7C3FA03469C
:104800001846FCF79BFC03461AB2434BDA83434B32
:104810005B6940491846FCF7B5FA03461846FCF7B1
:104820008DFC03461AB23C4B1A843C4B9B693949B8
:104830001846FCF7A7FA03461846FCF77FFC034628
:104840001AB2354B5A84354BDB6932491846FCF7AE
:1048500099FA03461846FCF771FC03461AB22E4B30
:104860009A842E4B1B6A2B491846FCF78BFA034699
:104870001846FCF763FC03461AB2274BDA842A4B2E
:104880001B6824491846FCF77DFA03461846FCF7D6
:1048900055FC03461AB2204B1A85234B5B681D4911
:1048A0001846FCF76FFA03461846FCF747FC034628
:1048B0001AB2194B5A851C4B9B6816491846FCF7CF
:1048C00061FA03461846FCF739FC03461AB2124B4C
:1048D0009A852E2215491048FFF7B6FE4FF47A73D9
:1048E0002E221249124803F0C9FD0346002B34D191
:1048F0001048FCF7A1FC0023FB6328E0880F002090
:104900006C02002070020020740200206C0C010870
:10491000980300200000C842300E002090050020BF
:10492000F0100020D00F00203C0400207C0200206A
:10493000E80400207C0C0108214AFB6B13441B781F
:1049400019462048FCF778FCFB6B0133FB63FB6BDB
:104950002D2BF1DD1C48FCF76FFC1C4A07F13803D6
:104960001268114619800233120C1A7007F13803CD
:104970001846FBF7EDFB03469AB207F138014FF4F6
:104980001673134803F07AFDFA220021114804F04F
:1049900041FCF0220021104804F03CFC4FF47A70F6
:1049A00001F07AF80D4B00221A600D4B00221A60BC
:1049B0000C4B01221A6000BF4437BD46F0BD00BF5A
:1049C0007C020020940C01089C0C0108A00C01083A
:1049D000E8040020580F0020300E00206C02002058
:1049E0007002002000000020F0B59BB00CAF00F07A
:1049F000F1FF00F019FA00F039FC00F0E3FB00F0E1
:104A00000BFC00F057FA00F011FB00F075FB00F012
:104A1000BDFA00F085FA0848FCF70EFC074B0122AE
:104A20001A7001E0FEF796FF044B1B78002BF9D0BB
:104A30000348FCF701FC07E0A40C0108310F00203B
:104A4000D40C0108FFF758F89B4B1B68002BF9D0DA
:104A50009A48FDF7C3FF9A4B00221A60994B002237
:104A60001A60994B1B68012BFBD1934B1B68002BE1
:104A700001D1FFF741F8904B1B68012B03D08E4BFF
:104A80001B68022BEDD18F4B1B6801338D4A1360DD
:104A90008E4C3B468E4A89491846FEF7FFF925465B
:104AA0003C460FCC0FC50FCC0FC594E80F0085E82E
:104AB0000F00642000F0F0FF844E6D4606F11004F4
:104AC0000FCC0FC594E80F0085E80F0096E80F00A3
:104AD000FFF79AFD7D4BDB687E491846FCF752F9DB
:104AE00003461946764B1C68631C754A13600846DA
:104AF000FCF724FB03461AB2774B23F81420734BC0
:104B00001B6974491846FCF73DF9034619466C4B7E
:104B10001C68631C6A4A13600846FCF70FFB0346D7
:104B20001AB26D4B23F81420684B5B69694918462B
:104B3000FCF728F903461946614B1C68631C604A60
:104B400013600846FCF7FAFA03461AB2624B23F8E0
:104B500014205E4B9B695F491846FCF713F9034626
:104B60001946574B1C68631C554A13600846FCF7EE
:104B7000E5FA03461AB2584B23F81420534BDB696D
:104B800054491846FCF7FEF8034619464C4B1C687E
:104B9000631C4B4A13600846FCF7D0FA03461AB26E
:104BA0004D4B23F81420494B1B6A4A491846FCF721
:104BB000E9F803461946424B1C68631C404A1360DF
:104BC0000846FCF7BBFA03461AB2434B23F81420FD
:104BD000424B1B683F491846FCF7D4F80346194678
:104BE000374B1C68631C364A13600846FCF7A6FA6C
:104BF00003461AB2384B23F81420384B5B6835490A
:104C00001846FCF7BFF8034619462D4B1C68631C79
:104C10002B4A13600846FCF791FA03461AB22E4B52
:104C200023F814202D4B9B682A491846FCF7AAF854
:104C300003461946224B1C68631C214A1360084630
:104C4000FCF77CFA03461AB2234B23F81420002306
:104C500087F83330184B1B68012B40F0A880194BA4
:104C600019681F4B83FB01239A10CB17D21A1346E6
:104C70009B0013445B00CA1A002A6CD1114B1B68BD
:104C80003C2B68DC5A2217491348FFF7DDFC0C4B1C
:104C90001B689BB25B009AB241F2707311491248D3
:104CA00003F0ECFB4FF4167301220A210F4803F0C6
:104CB000E5FB00237B632BE078020020D00F00206F
:104CC000780300207C0300200000002090050020D5
:104CD000F01000200000C842300E00203C040020EC
:104CE000676666667C020020E8040020E80D00206C
:104CF0003F4A7B6B32F913301A464FF47A7303FB49
:104D000002F319463B48FCF797FA7B6B01337B6350
:104D1000394B1B687A6B9A42EADB374B00221A60E8
:104D2000002387F83330F0220021314804F072FA72
:104D3000FA220021314804F06DFA4FF41673012273
:104D40000A212F4803F09AFB4FF4167301220A211F
:104D50002B4803F093FB2B4B1B683C2B27DD4FF4B8
:104D6000167301220A21264803F088FB4FF41673BC
:104D700001220A21224803F081FB234A07F1300374
:104D80001268114619800233120C1A7007F13003B1
:104D90001846FBF7DDF903469AB207F130014FF4EC
:104DA00016731A4803F06AFB194800F075FE194B98
:104DB0001B68022B17D1184B00221A60174E184A95
:104DC00009AB07CA83E80700164B08936D4606F146
:104DD00010040FCC0FC594E80F0085E80F0096E88B
:104DE0000F00FCF765FA4FF47A7000F055FE38E6D4
:104DF000300E0020040D0108780300207C02002002
:104E0000E80D00207C030020A00C0108E80400202D
:104E100000C2EB0B7802002000000020900500206B
:104E20003C040020F010002080B590B000AF07F1E6
:104E3000180328220021184604F0ECF93B1D00223B
:104E40001A605A609A60DA601A610123BB614FF4FC
:104E50008033FB6100233B620123BB6202237B633F
:104E60004FF48033BB634FF4E013FB6307F1180387
:104E7000184601F091F90346002B01D000F056FAD4
:104E80000F237B600223BB600023FB604FF4806331
:104E90003B6100237B613B1D0221184601F0FCFBB6
:104EA0000346002B01D000F041FA00BF4037BD4659
:104EB00080BD000080B500AF174B184A1A60164B32
:104EC0004FF482725A60144B00229A60124B0022F7
:104ED000DA60114B00221A610F4B00225A610E4B0F
:104EE0004FF400729A610C4B2022DA610A4B0022C7
:104EF0001A62094B00225A62074B00229A62064B43
:104F00000A22DA62044801F055FD0346002B01D065
:104F100000F00CFA00BF80BD3410002000300140CA
:104F200080B500AF174B184A1A60164B4FF48272C7
:104F30005A60144B00229A60124B0022DA60114B27
:104F400000221A610F4B00225A610E4B4FF400727F
:104F50009A610C4B0022DA610A4B00221A62094B5B
:104F600000225A62074B00229A62064B0A22DA623A
:104F7000044801F01FFD0346002B01D000F0D6F9D4
:104F800000BF80BD480400200038004080B586B0D6
:104F900000AF07F1080300221A605A609A60DA60D5
:104FA0003B4600221A605A601E4B1F4A1A601D4B76
:104FB00047225A601B4B00229A601A4B40F2E7329C
:104FC000DA60184B00221A61164B00225A61154B09
:104FD00000229A61134802F082FA0346002B01D0A6
:104FE00000F0A4F94FF48053BB6007F108031946A1
:104FF0000C4802F0E7FD0346002B01D000F096F9C3
:1050000000233B6000237B603B461946054803F0C4
:1050100075F90346002B01D000F088F900BF18375E
:10502000BD4680BD880F0020002C014080B58AB0AD
:1050300000AF07F1200300221A605A603B1D0022D6
:105040001A605A609A60DA601A615A619A61284B54
:10505000284A1A60264B40F2CF725A60244B002235
:105060009A60234B48F69F42DA60214B00221A6176
:105070001F4B00229A611E4802F000FB0346002BE2
:1050800001D000F053F900233B6200237B6207F15B
:1050900020031946164803F031F90346002B01D0CE
:1050A00000F044F960237B600023BB600023FB60B9
:1050B00000237B613B1D002219460D4802F0C0FC15
:1050C0000346002B01D000F031F93B1D04221946A4
:1050D000074802F0B5FC0346002B01D000F026F98A
:1050E000034800F039FA00BF2837BD4680BD00BF35
:1050F000C00500200004004080B58AB000AF07F171
:10510000200300221A605A603B1D00221A605A6078
:105110009A60DA601A615A619A61284B284A1A60CB
:10512000264B40F2CF725A60244B00229A60234BE8
:1051300048F69F42DA60214B00221A611F4B002281
:105140009A611E4802F09AFA0346002B01D000F043
:10515000EDF800233B6200237B6207F12003194630
:10516000164803F0CBF80346002B01D000F0DEF820
:1051700060237B600023BB600023FB6000237B6116
:105180003B1D082219460D4802F05AFC0346002B2D
:1051900001D000F0CBF83B1D0C221946074802F065
:1051A0004FFC0346002B01D000F0C0F8034800F08C
:1051B000D3F900BF2837BD4680BD00BFA004002042
:1051C0000008004080B500AF114B124A1A60104B26
:1051D0004FF4E1325A600E4B00229A600C4B0022D1
:1051E000DA600B4B00221A61094B0C225A61084B02
:1051F00000229A61064B0022DA61054803F0EEF8BE
:105200000346002B01D000F091F800BF80BD00BF25
:10521000E80D00200038014080B500AF114B124A64
:105220001A60104B4FF4E1325A600E4B00229A6024
:105230000C4B0022DA600B4B00221A61094B0C2246
:105240005A61084B00229A61064B0022DA61054838
:1052500003F0C4F80346002B01D000F067F800BF4C
:1052600080BD00BFE80400200048004080B588B041
:1052700000AF07F1100300221A605A609A60DA60EA
:10528000274B9B69264A43F020039361244B9B697B
:1052900003F02003FB60FB68214B9B69204A43F02D
:1052A000040393611E4B9B6903F00403BB60BB685E
:1052B0001B4B9B691A4A43F008039361184B9B6987
:1052C00003F008037B607B6800221021154800F082
:1052D0004BFF002241F20801134800F045FF102364
:1052E0003B6101237B610023BB610223FB6107F16A
:1052F000100319460B4800F0B3FD41F208033B616F
:1053000001237B610023BB610223FB6107F11003D2
:105310001946054800F0A4FD00BF2037BD4680BDFA
:105320000010024000080140000C014080B400AFB2
:1053300072B600BFFEE7000080B485B000AF154B29
:105340009B69144A43F001039361124B9B6903F07C
:105350000103BB60BB680F4BDB690E4A43F080530F
:10536000D3610C4BDB6903F080537B607B680A4B95
:105370005B68FB60FB6823F0E063FB60FB6843F065
:105380000073FB60044AFB68536000BF1437BD46DE
:1053900080BC7047001002400000014080B58AB018
:1053A00000AF786007F1180300221A605A609A6013
:1053B000DA607B681B68374A934230D1364B9B6971
:1053C000354A43F480539361334B9B6903F4805314
:1053D0007B617B69304B9B692F4A43F004039361E7
:1053E0002D4B9B6903F004033B613B69A023BB6128
:1053F0000223FB6103237B6207F118031946274848
:1054000000F02EFD4023BB610023FB6100233B62C3
:1054100007F118031946214800F022FD36E07B68A9
:105420001B681F4A934231D11B4BDB691A4A43F474
:105430008043D361184BDB6903F48043FB60FB6856
:10544000154B9B69144A43F008039361124B9B6907
:1054500003F00803BB60BB684FF42043BB61022329
:10546000FB6103237B6207F1180319460D4800F026
:10547000F7FC4FF48043BB610023FB6100233B62D8
:1054800007F118031946074800F0EAFC00BF283767
:10549000BD4680BD003001400010024000080140C0
:1054A00000380040000C014080B584B000AF786047
:1054B0007B681B680D4A934213D10D4B9B690C4AC4
:1054C00043F4006393610A4B9B6903F40063FB6040
:1054D000FB6800220021192000F0D9FB192000F000
:1054E000F2FB00BF1037BD4680BD00BF002C01405D
:1054F0000010024080B485B000AF78607B681B6804
:10550000124A93420CD1124BDB69114A43F0020359
:10551000D3610F4BDB6903F00203FB60FB6810E013
:105520007B681B680B4A93420BD1094BDB69084A25
:1055300043F00403D361064BDB6903F00403BB6053
:10554000BB6800BF1437BD4680BC704700040040F4
:10555000001002400008004080B58AB000AF7860BB
:1055600007F1140300221A605A609A60DA607B68BF
:105570001B68284A93422AD1274B9B69264A43F04D
:1055800008039361244B9B6903F008033B613B696B
:1055900030237B610223BB6102233B6207F11403CA
:1055A00019461E4800F05CFC1D4B5B687B627B6A01
:1055B00023F440637B627B6A43F0E0637B627B6A37
:1055C00043F400637B62164A7B6A53601DE07B688C
:1055D0001B68144A934218D10F4B9B690E4A43F043
:1055E000080393610C4B9B6903F00803FB60FB68A5
:1055F0004FF440737B610223BB6102233B6207F1DE
:1056000014031946054800F02BFC00BF2837BD469F
:1056100080BD00BF0004004000100240000C0140AB
:10562000000001400008004080B58CB000AF7860F9
:1056300007F11C0300221A605A609A60DA607B68E6
:105640001B68464A934246D1454B9B69444A43F402
:1056500080439361424B9B6903F48043BB61BB6908
:105660003F4B9B693E4A43F0080393613C4B9B6967
:1056700003F008037B617B694023FB6102233B62EB
:105680000323BB6207F11C031946364800F0E8FB10
:105690008023FB6100233B6200237B6207F11C0334
:1056A0001946304800F0DCFB2F4B5B68FB62FB6A5D
:1056B00043F0E063FB62FB6A43F00403FB622A4AA7
:1056C000FB6A536000220021252000F0E0FA25202B
:1056D00000F0F9FA3EE07B681B68244A934239D116
:1056E0001F4BDB691E4A43F48023D3611C4BDB69EB
:1056F00003F480233B613B69194B9B69184A43F0D3
:1057000008039361164B9B6903F00803FB60FB6879
:105710004FF48063FB6102233B620323BB6207F10A
:105720001C0319460F4800F09BFB4FF40063FB611C
:1057300000233B6200237B6207F11C0319460948E2
:1057400000F08EFB00220021272000F0A0FA272085
:1057500000F0B9FA00BF3037BD4680BD00380140C7
:1057600000100240000C01400000014000480040D1
:1057700080B400AFFEE780B400AFFEE780B400AFB6
:10578000FEE780B400AFFEE780B400AFFEE780B470
:1057900000AF00BFBD4680BC704780B400AF00BF03
:1057A000BD4680BC704780B400AF00BFBD4680BC22
:1057B000704780B500AF00F053F900BF80BD000016
:1057C00080B500AF024802F04BF800BF80BD00BFBB
:1057D000880F002080B500AF024802F071FF00BFC3
:1057E00080BD00BFE80D002080B500AF024802F088
:1057F00067FF00BF80BD00BFE804002080B400AF99
:1058000001231846BD4680BC704780B582B000AF0A
:105810007860396003F0ACFC034616221A604FF042
:10582000FF3318460837BD4680BD80B582B000AF53
:1058300078604FF0FF317868FFF7E7FFFEE780B54B
:1058400086B000AFF860B9607A6000237B610AE03F
:10585000AFF300800146BB685A1CBA60CAB21A7026
:105860007B6901337B617A697B689A42F0DB7B68F4
:1058700018461837BD4680BD80B586B000AFF860C9
:10588000B9607A6000237B6109E0BB685A1CBA608A
:105890001B781846AFF300807B6901337B617A691E
:1058A0007B689A42F1DB7B6818461837BD4680BD9D
:1058B00080B483B000AF78604FF0FF3318460C37E8
:1058C000BD4680BC704780B483B000AF786039605B
:1058D0003B684FF400525A60002318460C37BD460F
:1058E00080BC704780B483B000AF78600123184655
:1058F0000C37BD4680BC704780B485B000AFF860FF
:10590000B9607A60002318461437BD4680BC7047E2
:1059100080B586B000AF7860144A154BD31A7B610E
:105920007B693B61134B1B68002B02D1114B124A60
:105930001A60104B1A687B6813443A699A4207D27E
:1059400003F016FC03460C221A604FF0FF3309E007
:10595000084B1B68FB60074B1A687B681344054AB9
:105960001360FB6818461837BD4680BD0050002004
:1059700000040000800300202811002080B400AF44
:1059800000BFBD4680BC7047FFF7F8FF0B480C49CD
:105990000C4A002302E0D458C4500433C4188C428B
:1059A000F9D3094A094C002301E013600432A242F2
:1059B000FBD303F0F5FBFFF717F87047000000205A
:1059C000E801002028180108E80100202411002027
:1059D000FEE7000080B500AF084B1B68074A43F0A4
:1059E00010031360032000F047F90F2000F008F8BF
:1059F000FFF7A2FC0023184680BD00BF0020024034
:105A000080B582B000AF7860124B1A68124B1B78D9
:105A100019464FF47A73B3FBF1F3B2FBF3F3184674
:105A200000F05FF90346002B01D001230EE07B68F4
:105A30000F2B0AD8002279684FF0FF3000F027F9C9
:105A4000064A7B681360002300E0012318460837EC
:105A5000BD4680BD040000200C000020080000208E
:105A600080B400AF054B1B781A46054B1B681344E6
:105A7000034A136000BFBD4680BC70470C00002085
:105A80001011002080B400AF024B1B681846BD46C1
:105A900080BC70471011002080B584B000AF7860E2
:105AA000FFF7F0FFB8607B68FB60FB68B3F1FF3F76
:105AB00005D00A4B1B781A46FB681344FB6000BFF5
:105AC000FFF7E0FF0246BB68D31AFA689A42F7D89C
:105AD00000BF00BF1037BD4680BD00BF0C000020D6
